{
  "_format": "hh-sol-artifact-1",
  "contractName": "Amethyst",
  "sourceName": "contracts/Amethyst.sol",
  "abi": [
    {
      "inputs": [
        {
          "internalType": "address",
          "name": "_purpleCoinAddress",
          "type": "address"
        }
      ],
      "stateMutability": "nonpayable",
      "type": "constructor"
    },
    {
      "inputs": [
        {
          "internalType": "string",
          "name": "_biografia",
          "type": "string"
        }
      ],
      "name": "addBiografia",
      "outputs": [],
      "stateMutability": "nonpayable",
      "type": "function"
    },
    {
      "inputs": [
        {
          "internalType": "uint256",
          "name": "_id_post",
          "type": "uint256"
        }
      ],
      "name": "addLike",
      "outputs": [],
      "stateMutability": "nonpayable",
      "type": "function"
    },
    {
      "inputs": [
        {
          "internalType": "uint256",
          "name": "_id_gruppo",
          "type": "uint256"
        },
        {
          "internalType": "string",
          "name": "_titolo",
          "type": "string"
        },
        {
          "internalType": "string",
          "name": "_descrizione",
          "type": "string"
        }
      ],
      "name": "createPost",
      "outputs": [],
      "stateMutability": "nonpayable",
      "type": "function"
    },
    {
      "inputs": [
        {
          "internalType": "address",
          "name": "_accountAddress",
          "type": "address"
        },
        {
          "internalType": "string",
          "name": "_name",
          "type": "string"
        }
      ],
      "name": "create_account",
      "outputs": [],
      "stateMutability": "nonpayable",
      "type": "function"
    },
    {
      "inputs": [
        {
          "internalType": "uint256",
          "name": "_id_post",
          "type": "uint256"
        },
        {
          "internalType": "string",
          "name": "_descrizione",
          "type": "string"
        }
      ],
      "name": "create_commento",
      "outputs": [],
      "stateMutability": "nonpayable",
      "type": "function"
    },
    {
      "inputs": [
        {
          "internalType": "uint256",
          "name": "_id_post",
          "type": "uint256"
        }
      ],
      "name": "deletePost",
      "outputs": [],
      "stateMutability": "nonpayable",
      "type": "function"
    },
    {
      "inputs": [],
      "name": "getAllPosts",
      "outputs": [
        {
          "components": [
            {
              "internalType": "uint256",
              "name": "id_gruppo_post",
              "type": "uint256"
            },
            {
              "internalType": "uint256",
              "name": "id_post",
              "type": "uint256"
            },
            {
              "internalType": "string",
              "name": "titolo",
              "type": "string"
            },
            {
              "internalType": "string",
              "name": "descrizione",
              "type": "string"
            },
            {
              "internalType": "uint256",
              "name": "n_like",
              "type": "uint256"
            },
            {
              "internalType": "string",
              "name": "account",
              "type": "string"
            },
            {
              "internalType": "bool",
              "name": "rewarded",
              "type": "bool"
            },
            {
              "internalType": "address",
              "name": "_sender",
              "type": "address"
            }
          ],
          "internalType": "struct Amethyst.Post[]",
          "name": "",
          "type": "tuple[]"
        }
      ],
      "stateMutability": "view",
      "type": "function"
    },
    {
      "inputs": [
        {
          "internalType": "address",
          "name": "user",
          "type": "address"
        }
      ],
      "name": "getBiografy",
      "outputs": [
        {
          "internalType": "string",
          "name": "",
          "type": "string"
        }
      ],
      "stateMutability": "view",
      "type": "function"
    },
    {
      "inputs": [
        {
          "internalType": "uint256",
          "name": "_id_post",
          "type": "uint256"
        }
      ],
      "name": "getCommenti",
      "outputs": [
        {
          "components": [
            {
              "internalType": "uint256",
              "name": "id_post_commento",
              "type": "uint256"
            },
            {
              "internalType": "string",
              "name": "descrizione",
              "type": "string"
            },
            {
              "internalType": "string",
              "name": "account",
              "type": "string"
            }
          ],
          "internalType": "struct Amethyst.Commento[]",
          "name": "",
          "type": "tuple[]"
        }
      ],
      "stateMutability": "view",
      "type": "function"
    },
    {
      "inputs": [
        {
          "internalType": "uint256",
          "name": "_id",
          "type": "uint256"
        }
      ],
      "name": "getGruppId",
      "outputs": [
        {
          "components": [
            {
              "internalType": "uint256",
              "name": "id_gruppo",
              "type": "uint256"
            },
            {
              "internalType": "string",
              "name": "nick_group",
              "type": "string"
            },
            {
              "internalType": "string",
              "name": "descrizione",
              "type": "string"
            },
            {
              "internalType": "uint256",
              "name": "n_like",
              "type": "uint256"
            },
            {
              "internalType": "uint256",
              "name": "n_post",
              "type": "uint256"
            }
          ],
          "internalType": "struct Amethyst.Gruppo",
          "name": "",
          "type": "tuple"
        }
      ],
      "stateMutability": "view",
      "type": "function"
    },
    {
      "inputs": [],
      "name": "getGruppi",
      "outputs": [
        {
          "components": [
            {
              "internalType": "uint256",
              "name": "id_gruppo",
              "type": "uint256"
            },
            {
              "internalType": "string",
              "name": "nick_group",
              "type": "string"
            },
            {
              "internalType": "string",
              "name": "descrizione",
              "type": "string"
            },
            {
              "internalType": "uint256",
              "name": "n_like",
              "type": "uint256"
            },
            {
              "internalType": "uint256",
              "name": "n_post",
              "type": "uint256"
            }
          ],
          "internalType": "struct Amethyst.Gruppo[]",
          "name": "",
          "type": "tuple[]"
        }
      ],
      "stateMutability": "view",
      "type": "function"
    },
    {
      "inputs": [
        {
          "internalType": "uint256",
          "name": "_id_gruppo",
          "type": "uint256"
        }
      ],
      "name": "getPost",
      "outputs": [
        {
          "components": [
            {
              "internalType": "uint256",
              "name": "id_gruppo_post",
              "type": "uint256"
            },
            {
              "internalType": "uint256",
              "name": "id_post",
              "type": "uint256"
            },
            {
              "internalType": "string",
              "name": "titolo",
              "type": "string"
            },
            {
              "internalType": "string",
              "name": "descrizione",
              "type": "string"
            },
            {
              "internalType": "uint256",
              "name": "n_like",
              "type": "uint256"
            },
            {
              "internalType": "string",
              "name": "account",
              "type": "string"
            },
            {
              "internalType": "bool",
              "name": "rewarded",
              "type": "bool"
            },
            {
              "internalType": "address",
              "name": "_sender",
              "type": "address"
            }
          ],
          "internalType": "struct Amethyst.Post[]",
          "name": "",
          "type": "tuple[]"
        }
      ],
      "stateMutability": "view",
      "type": "function"
    },
    {
      "inputs": [],
      "name": "get_address",
      "outputs": [
        {
          "internalType": "address[]",
          "name": "",
          "type": "address[]"
        }
      ],
      "stateMutability": "view",
      "type": "function"
    },
    {
      "inputs": [
        {
          "internalType": "address",
          "name": "user",
          "type": "address"
        }
      ],
      "name": "get_nickname_address",
      "outputs": [
        {
          "internalType": "string",
          "name": "",
          "type": "string"
        }
      ],
      "stateMutability": "view",
      "type": "function"
    },
    {
      "inputs": [],
      "name": "get_utente",
      "outputs": [
        {
          "internalType": "string[]",
          "name": "",
          "type": "string[]"
        }
      ],
      "stateMutability": "view",
      "type": "function"
    },
    {
      "inputs": [
        {
          "internalType": "address",
          "name": "_utente",
          "type": "address"
        }
      ],
      "name": "get_utente_registrato",
      "outputs": [
        {
          "internalType": "bool",
          "name": "",
          "type": "bool"
        }
      ],
      "stateMutability": "view",
      "type": "function"
    },
    {
      "inputs": [
        {
          "internalType": "string",
          "name": "_newNickName",
          "type": "string"
        }
      ],
      "name": "modifyNickname",
      "outputs": [],
      "stateMutability": "nonpayable",
      "type": "function"
    },
    {
      "inputs": [],
      "name": "toggleEmergencyStop",
      "outputs": [],
      "stateMutability": "nonpayable",
      "type": "function"
    }
  ],
  "bytecode": "0x60806040526000600360146101000a81548160ff02191690831515021790555060006005556000600655600060075534801561003a57600080fd5b50604051614e61380380614e61833981810160405281019061005c919061065c565b80600360006101000a81548173ffffffffffffffffffffffffffffffffffffffff021916908373ffffffffffffffffffffffffffffffffffffffff16021790555033600460006101000a81548173ffffffffffffffffffffffffffffffffffffffff021916908373ffffffffffffffffffffffffffffffffffffffff16021790555061013b6040518060400160405280600581526020017f53706f7274000000000000000000000000000000000000000000000000000000815250604051806060016040528060278152602001614e3a602791396104fa60201b60201c565b6101986040518060400160405280600e81526020017f50726f6772616d6d617a696f6e65000000000000000000000000000000000000815250604051806060016040528060278152602001614d77602791396104fa60201b60201c565b6101f56040518060400160405280600681526020017f4d75736963610000000000000000000000000000000000000000000000000000815250604051806060016040528060228152602001614dc9602291396104fa60201b60201c565b61026f6040518060400160405280600681526020017f437563696e6100000000000000000000000000000000000000000000000000008152506040518060400160405280601a81526020017f52696365747465206520747275636368692063756c696e6172690000000000008152506104fa60201b60201c565b6102cc6040518060400160405280600681526020017f5669616767690000000000000000000000000000000000000000000000000000815250604051806060016040528060228152602001614e18602291396104fa60201b60201c565b6103466040518060400160405280600681526020017f43696e656d6100000000000000000000000000000000000000000000000000008152506040518060400160405280601b81526020017f46696c6d2c207365726965205456206520726563656e73696f6e6900000000008152506104fa60201b60201c565b6103a36040518060400160405280600581526020017f4c696272690000000000000000000000000000000000000000000000000000008152506040518060600160405280602d8152602001614deb602d91396104fa60201b60201c565b61041d6040518060400160405280600b81526020017f566964656f67696f6368690000000000000000000000000000000000000000008152506040518060400160405280602081526020017f547574746f2073756920766964656f67616d6573206520696c2067616d696e678152506104fa60201b60201c565b61047a6040518060400160405280600781526020017f4669746e657373000000000000000000000000000000000000000000000000008152506040518060600160405280602b8152602001614d9e602b91396104fa60201b60201c565b6104f46040518060400160405280600a81526020017f5465636e6f6c6f676961000000000000000000000000000000000000000000008152506040518060400160405280601b81526020017f556c74696d65206e6f76697461272065207472656e64207465636800000000008152506104fa60201b60201c565b50610ac5565b600360149054906101000a900460ff161561054a576040517f08c379a00000000000000000000000000000000000000000000000000000000081526004016105419061070c565b60405180910390fd5b60006040518060a0016040528060055481526020018481526020018381526020016000815260200160008152509050806008600060055481526020019081526020016000206000820151816000015560208201518160010190816105ae919061097c565b5060408201518160020190816105c4919061097c565b506060820151816003015560808201518160040155905050600560008154809291906105ef90610a7d565b9190505550505050565b600080fd5b600073ffffffffffffffffffffffffffffffffffffffff82169050919050565b6000610629826105fe565b9050919050565b6106398161061e565b811461064457600080fd5b50565b60008151905061065681610630565b92915050565b600060208284031215610672576106716105f9565b5b600061068084828501610647565b91505092915050565b600082825260208201905092915050565b7f456d657267656e7a61206174746976613a207475747465206c65206f7065726160008201527f7a696f6e6920736f6e6f20736f73706573652e00000000000000000000000000602082015250565b60006106f6603383610689565b91506107018261069a565b604082019050919050565b60006020820190508181036000830152610725816106e9565b9050919050565b600081519050919050565b7f4e487b7100000000000000000000000000000000000000000000000000000000600052604160045260246000fd5b7f4e487b7100000000000000000000000000000000000000000000000000000000600052602260045260246000fd5b600060028204905060018216806107ad57607f821691505b6020821081036107c0576107bf610766565b5b50919050565b60008190508160005260206000209050919050565b60006020601f8301049050919050565b600082821b905092915050565b6000600883026108287fffffffffffffffffffffffffffffffffffffffffffffffffffffffffffffffff826107eb565b61083286836107eb565b95508019841693508086168417925050509392505050565b6000819050919050565b6000819050919050565b600061087961087461086f8461084a565b610854565b61084a565b9050919050565b6000819050919050565b6108938361085e565b6108a761089f82610880565b8484546107f8565b825550505050565b600090565b6108bc6108af565b6108c781848461088a565b505050565b5b818110156108eb576108e06000826108b4565b6001810190506108cd565b5050565b601f82111561093057610901816107c6565b61090a846107db565b81016020851015610919578190505b61092d610925856107db565b8301826108cc565b50505b505050565b600082821c905092915050565b600061095360001984600802610935565b1980831691505092915050565b600061096c8383610942565b9150826002028217905092915050565b6109858261072c565b67ffffffffffffffff81111561099e5761099d610737565b5b6109a88254610795565b6109b38282856108ef565b600060209050601f8311600181146109e657600084156109d4578287015190505b6109de8582610960565b865550610a46565b601f1984166109f4866107c6565b60005b82811015610a1c578489015182556001820191506020850194506020810190506109f7565b86831015610a395784890151610a35601f891682610942565b8355505b6001600288020188555050505b505050505050565b7f4e487b7100000000000000000000000000000000000000000000000000000000600052601160045260246000fd5b6000610a888261084a565b91507fffffffffffffffffffffffffffffffffffffffffffffffffffffffffffffffff8203610aba57610ab9610a4e565b5b600182019050919050565b6142a380610ad46000396000f3fe608060405234801561001057600080fd5b50600436106101165760003560e01c80634b7aac94116100a257806362b9a3941161007157806362b9a394146102b957806398a0ed56146102e9578063a64bc9f014610319578063bf9d625114610335578063f135fbd51461035157610116565b80634b7aac94146102475780634e9b473914610251578063581e27e61461026d57806359e0f1d51461029d57610116565b806336c72d7d116100e957806336c72d7d1461018f578063378a35cd146101ad5780633db8c102146101c957806340731c24146101e7578063412872131461021757610116565b80630131222f1461011b578063094cd5ee146101395780630e9c35b3146101555780633056110014610171575b600080fd5b610123610381565b6040516101309190612c1b565b60405180910390f35b610153600480360381019061014e9190612c87565b61040f565b005b61016f600480360381019061016a9190612dfa565b610695565b005b610179610858565b604051610186919061307f565b60405180910390f35b610197610b58565b6040516101a49190613163565b60405180910390f35b6101c760048036038101906101c29190612c87565b610cfc565b005b6101d1611304565b6040516101de91906132c4565b60405180910390f35b61020160048036038101906101fc9190612c87565b611500565b60405161020e919061307f565b60405180910390f35b610231600480360381019061022c9190613312565b6118ca565b60405161023e919061334e565b60405180910390f35b61024f611920565b005b61026b60048036038101906102669190613369565b6119dc565b005b61028760048036038101906102829190613312565b611cde565b604051610294919061343e565b60405180910390f35b6102b760048036038101906102b29190613460565b611e3d565b005b6102d360048036038101906102ce9190613312565b612067565b6040516102e0919061343e565b60405180910390f35b61030360048036038101906102fe9190612c87565b612140565b60405161031091906135c2565b60405180910390f35b610333600480360381019061032e91906135e4565b6123f3565b005b61034f600480360381019061034a9190613460565b612784565b005b61036b60048036038101906103669190612c87565b6128b2565b60405161037891906136bd565b60405180910390f35b6060600280548060200260200160405190810160405280929190818152602001828054801561040557602002820191906000526020600020905b8160009054906101000a900473ffffffffffffffffffffffffffffffffffffffff1673ffffffffffffffffffffffffffffffffffffffff16815260200190600101908083116103bb575b5050505050905090565b803373ffffffffffffffffffffffffffffffffffffffff166009600083815260200190815260200160002060060160019054906101000a900473ffffffffffffffffffffffffffffffffffffffff1673ffffffffffffffffffffffffffffffffffffffff16146104b4576040517f08c379a00000000000000000000000000000000000000000000000000000000081526004016104ab90613751565b60405180910390fd5b81600081101580156104c857506006548111155b610507576040517f08c379a00000000000000000000000000000000000000000000000000000000081526004016104fe906137bd565b60405180910390fd5b600360149054906101000a900460ff1615610557576040517f08c379a000000000000000000000000000000000000000000000000000000000815260040161054e9061384f565b60405180910390fd5b6000600960008581526020019081526020016000206000015490506000600960008681526020019081526020016000206004015490508060086000848152602001908152602001600020600301546105af919061389e565b60086000848152602001908152602001600020600301819055506008600083815260200190815260200160002060040160008154809291906105f0906138d2565b91905055506009600086815260200190815260200160002060008082016000905560018201600090556002820160006106299190612a21565b6003820160006106399190612a21565b60048201600090556005820160006106519190612a21565b6006820160006101000a81549060ff02191690556006820160016101000a81549073ffffffffffffffffffffffffffffffffffffffff021916905550505050505050565b600160003373ffffffffffffffffffffffffffffffffffffffff1673ffffffffffffffffffffffffffffffffffffffff16815260200190815260200160002060009054906101000a900460ff16610721576040517f08c379a000000000000000000000000000000000000000000000000000000000815260040161071890613947565b60405180910390fd5b816000811015801561073557506006548111155b610774576040517f08c379a000000000000000000000000000000000000000000000000000000000815260040161076b906137bd565b60405180910390fd5b600360149054906101000a900460ff16156107c4576040517f08c379a00000000000000000000000000000000000000000000000000000000081526004016107bb9061384f565b60405180910390fd5b600060405180606001604052808581526020018481526020016107e633612067565b815250905080600a600060075481526020019081526020016000206000820151816000015560208201518160010190816108209190613b73565b5060408201518160020190816108369190613b73565b509050506007600081548092919061084d90613c45565b919050555050505050565b6060600060065467ffffffffffffffff81111561087857610877612ccf565b5b6040519080825280602002602001820160405280156108b157816020015b61089e612a61565b8152602001906001900390816108965790505b50905060005b600654811015610b50576009600082815260200190815260200160002060405180610100016040529081600082015481526020016001820154815260200160028201805461090490613996565b80601f016020809104026020016040519081016040528092919081815260200182805461093090613996565b801561097d5780601f106109525761010080835404028352916020019161097d565b820191906000526020600020905b81548152906001019060200180831161096057829003601f168201915b5050505050815260200160038201805461099690613996565b80601f01602080910402602001604051908101604052809291908181526020018280546109c290613996565b8015610a0f5780601f106109e457610100808354040283529160200191610a0f565b820191906000526020600020905b8154815290600101906020018083116109f257829003601f168201915b5050505050815260200160048201548152602001600582018054610a3290613996565b80601f0160208091040260200160405190810160405280929190818152602001828054610a5e90613996565b8015610aab5780601f10610a8057610100808354040283529160200191610aab565b820191906000526020600020905b815481529060010190602001808311610a8e57829003601f168201915b505050505081526020016006820160009054906101000a900460ff161515151581526020016006820160019054906101000a900473ffffffffffffffffffffffffffffffffffffffff1673ffffffffffffffffffffffffffffffffffffffff1673ffffffffffffffffffffffffffffffffffffffff1681525050828281518110610b3857610b37613c8d565b5b602002602001018190525080806001019150506108b7565b508091505090565b6060600060028054905067ffffffffffffffff811115610b7b57610b7a612ccf565b5b604051908082528060200260200182016040528015610bae57816020015b6060815260200190600190039081610b995790505b50905060005b600280549050811015610cf45760008060028381548110610bd857610bd7613c8d565b5b9060005260206000200160009054906101000a900473ffffffffffffffffffffffffffffffffffffffff1673ffffffffffffffffffffffffffffffffffffffff1673ffffffffffffffffffffffffffffffffffffffff1681526020019081526020016000206001018054610c4b90613996565b80601f0160208091040260200160405190810160405280929190818152602001828054610c7790613996565b8015610cc45780601f10610c9957610100808354040283529160200191610cc4565b820191906000526020600020905b815481529060010190602001808311610ca757829003601f168201915b5050505050828281518110610cdc57610cdb613c8d565b5b60200260200101819052508080600101915050610bb4565b819250505090565b600160003373ffffffffffffffffffffffffffffffffffffffff1673ffffffffffffffffffffffffffffffffffffffff16815260200190815260200160002060009054906101000a900460ff16610d88576040517f08c379a0000000000000000000000000000000000000000000000000000000008152600401610d7f90613947565b60405180910390fd5b80600b60003373ffffffffffffffffffffffffffffffffffffffff1673ffffffffffffffffffffffffffffffffffffffff168152602001908152602001600020600082815260200190815260200160002060009054906101000a900460ff1615610e27576040517f08c379a0000000000000000000000000000000000000000000000000000000008152600401610e1e90613d2e565b60405180910390fd5b8160008110158015610e3b57506006548111155b610e7a576040517f08c379a0000000000000000000000000000000000000000000000000000000008152600401610e71906137bd565b60405180910390fd5b600360149054906101000a900460ff1615610eca576040517f08c379a0000000000000000000000000000000000000000000000000000000008152600401610ec19061384f565b60405180910390fd5b600073ffffffffffffffffffffffffffffffffffffffff166009600085815260200190815260200160002060060160019054906101000a900473ffffffffffffffffffffffffffffffffffffffff1673ffffffffffffffffffffffffffffffffffffffff1603610f6f576040517f08c379a0000000000000000000000000000000000000000000000000000000008152600401610f6690613d9a565b60405180910390fd5b600b60003373ffffffffffffffffffffffffffffffffffffffff1673ffffffffffffffffffffffffffffffffffffffff168152602001908152602001600020600084815260200190815260200160002060009054906101000a900460ff161561100d576040517f08c379a000000000000000000000000000000000000000000000000000000000815260040161100490613e2c565b60405180910390fd5b60096000848152602001908152602001600020600401600081548092919061103490613c45565b919050555060006009600085815260200190815260200160002060000154905060086000828152602001908152602001600020600301600081548092919061107b90613c45565b91905055506001600b60003373ffffffffffffffffffffffffffffffffffffffff1673ffffffffffffffffffffffffffffffffffffffff168152602001908152602001600020600086815260200190815260200160002060006101000a81548160ff02191690831515021790555060006040518060c001604052806003815260200160058152602001600a815260200160328152602001606481526020016101f4815250905060006040518060c0016040528060058152602001600a8152602001600f815260200160148152602001601e81526020016032815250905060005b60068110156112fb5782816006811061117757611176613c8d565b5b602002015160096000898152602001908152602001600020600401541480156111cf5750600c6000888152602001908152602001600020600082815260200190815260200160002060009054906101000a900460ff16155b156112ee576001600c6000898152602001908152602001600020600083815260200190815260200160002060006101000a81548160ff021916908315150217905550600360009054906101000a900473ffffffffffffffffffffffffffffffffffffffff1673ffffffffffffffffffffffffffffffffffffffff166340c10f19600960008a815260200190815260200160002060060160019054906101000a900473ffffffffffffffffffffffffffffffffffffffff1684846006811061129957611298613c8d565b5b60200201516040518363ffffffff1660e01b81526004016112bb929190613e6a565b600060405180830381600087803b1580156112d557600080fd5b505af11580156112e9573d6000803e3d6000fd5b505050505b808060010191505061115b565b50505050505050565b6060600060055467ffffffffffffffff81111561132457611323612ccf565b5b60405190808252806020026020018201604052801561135d57816020015b61134a612abe565b8152602001906001900390816113425790505b50905060005b6005548110156114f857600860008281526020019081526020016000206040518060a0016040529081600082015481526020016001820180546113a590613996565b80601f01602080910402602001604051908101604052809291908181526020018280546113d190613996565b801561141e5780601f106113f35761010080835404028352916020019161141e565b820191906000526020600020905b81548152906001019060200180831161140157829003601f168201915b5050505050815260200160028201805461143790613996565b80601f016020809104026020016040519081016040528092919081815260200182805461146390613996565b80156114b05780601f10611485576101008083540402835291602001916114b0565b820191906000526020600020905b81548152906001019060200180831161149357829003601f168201915b50505050508152602001600382015481526020016004820154815250508282815181106114e0576114df613c8d565b5b60200260200101819052508080600101915050611363565b508091505090565b60608160098111158015611515575060008110155b611554576040517f08c379a000000000000000000000000000000000000000000000000000000000815260040161154b90613edf565b60405180910390fd5b6000805b60065481101561159b578460096000838152602001908152602001600020600001540361158e57818061158a90613c45565b9250505b8080600101915050611558565b5060008167ffffffffffffffff8111156115b8576115b7612ccf565b5b6040519080825280602002602001820160405280156115f157816020015b6115de612a61565b8152602001906001900390816115d65790505b5090506000805b6006548110156118bd57866009600083815260200190815260200160002060000154036118b0576009600082815260200190815260200160002060405180610100016040529081600082015481526020016001820154815260200160028201805461166290613996565b80601f016020809104026020016040519081016040528092919081815260200182805461168e90613996565b80156116db5780601f106116b0576101008083540402835291602001916116db565b820191906000526020600020905b8154815290600101906020018083116116be57829003601f168201915b505050505081526020016003820180546116f490613996565b80601f016020809104026020016040519081016040528092919081815260200182805461172090613996565b801561176d5780601f106117425761010080835404028352916020019161176d565b820191906000526020600020905b81548152906001019060200180831161175057829003601f168201915b505050505081526020016004820154815260200160058201805461179090613996565b80601f01602080910402602001604051908101604052809291908181526020018280546117bc90613996565b80156118095780601f106117de57610100808354040283529160200191611809565b820191906000526020600020905b8154815290600101906020018083116117ec57829003601f168201915b505050505081526020016006820160009054906101000a900460ff161515151581526020016006820160019054906101000a900473ffffffffffffffffffffffffffffffffffffffff1673ffffffffffffffffffffffffffffffffffffffff1673ffffffffffffffffffffffffffffffffffffffff168152505083838151811061189657611895613c8d565b5b602002602001018190525081806118ac90613c45565b9250505b80806001019150506115f8565b5081945050505050919050565b6000600160008373ffffffffffffffffffffffffffffffffffffffff1673ffffffffffffffffffffffffffffffffffffffff16815260200190815260200160002060009054906101000a900460ff169050919050565b600460009054906101000a900473ffffffffffffffffffffffffffffffffffffffff1673ffffffffffffffffffffffffffffffffffffffff163373ffffffffffffffffffffffffffffffffffffffff16146119b0576040517f08c379a00000000000000000000000000000000000000000000000000000000081526004016119a790613f71565b60405180910390fd5b600360149054906101000a900460ff1615600360146101000a81548160ff021916908315150217905550565b600160003373ffffffffffffffffffffffffffffffffffffffff1673ffffffffffffffffffffffffffffffffffffffff16815260200190815260200160002060009054906101000a900460ff16611a68576040517f08c379a0000000000000000000000000000000000000000000000000000000008152600401611a5f90613947565b60405180910390fd5b8260098111158015611a7b575060008110155b611aba576040517f08c379a0000000000000000000000000000000000000000000000000000000008152600401611ab190613edf565b60405180910390fd5b82604181511115611b00576040517f08c379a0000000000000000000000000000000000000000000000000000000008152600401611af790614003565b60405180910390fd5b600360149054906101000a900460ff1615611b50576040517f08c379a0000000000000000000000000000000000000000000000000000000008152600401611b479061384f565b60405180910390fd5b6000604051806101000160405280878152602001600654815260200186815260200185815260200160008152602001611b8833612067565b81526020016000151581526020013373ffffffffffffffffffffffffffffffffffffffff168152509050600860008781526020019081526020016000206004016000815480929190611bd990613c45565b91905055508060096000600654815260200190815260200160002060008201518160000155602082015181600101556040820151816002019081611c1d9190613b73565b506060820151816003019081611c339190613b73565b506080820151816004015560a0820151816005019081611c539190613b73565b5060c08201518160060160006101000a81548160ff02191690831515021790555060e08201518160060160016101000a81548173ffffffffffffffffffffffffffffffffffffffff021916908373ffffffffffffffffffffffffffffffffffffffff16021790555090505060066000815480929190611cd190613c45565b9190505550505050505050565b6060600160008373ffffffffffffffffffffffffffffffffffffffff1673ffffffffffffffffffffffffffffffffffffffff16815260200190815260200160002060009054906101000a900460ff16611d6c576040517f08c379a0000000000000000000000000000000000000000000000000000000008152600401611d639061406f565b60405180910390fd5b6000808373ffffffffffffffffffffffffffffffffffffffff1673ffffffffffffffffffffffffffffffffffffffff1681526020019081526020016000206002018054611db890613996565b80601f0160208091040260200160405190810160405280929190818152602001828054611de490613996565b8015611e315780601f10611e0657610100808354040283529160200191611e31565b820191906000526020600020905b815481529060010190602001808311611e1457829003601f168201915b50505050509050919050565b8060005b600280549050811015611f3757818051906020012060008060028481548110611e6d57611e6c613c8d565b5b9060005260206000200160009054906101000a900473ffffffffffffffffffffffffffffffffffffffff1673ffffffffffffffffffffffffffffffffffffffff1673ffffffffffffffffffffffffffffffffffffffff168152602001908152602001600020600101604051611ee29190614132565b604051809103902003611f2a576040517f08c379a0000000000000000000000000000000000000000000000000000000008152600401611f21906141bb565b60405180910390fd5b8080600101915050611e41565b600360149054906101000a900460ff1615611f87576040517f08c379a0000000000000000000000000000000000000000000000000000000008152600401611f7e9061384f565b60405180910390fd5b600160003373ffffffffffffffffffffffffffffffffffffffff1673ffffffffffffffffffffffffffffffffffffffff16815260200190815260200160002060009054906101000a900460ff16612013576040517f08c379a000000000000000000000000000000000000000000000000000000000815260040161200a9061406f565b60405180910390fd5b826000803373ffffffffffffffffffffffffffffffffffffffff1673ffffffffffffffffffffffffffffffffffffffff16815260200190815260200160002060010190816120619190613b73565b50505050565b606060008060008473ffffffffffffffffffffffffffffffffffffffff1673ffffffffffffffffffffffffffffffffffffffff16815260200190815260200160002060010180546120b790613996565b80601f01602080910402602001604051908101604052809291908181526020018280546120e390613996565b80156121305780601f1061210557610100808354040283529160200191612130565b820191906000526020600020905b81548152906001019060200180831161211357829003601f168201915b5050505050905080915050919050565b6060816000811015801561215657506006548111155b612195576040517f08c379a000000000000000000000000000000000000000000000000000000000815260040161218c906137bd565b60405180910390fd5b6000805b6007548110156121dc5784600a600083815260200190815260200160002060000154036121cf5781806121cb90613c45565b9250505b8080600101915050612199565b5060008167ffffffffffffffff8111156121f9576121f8612ccf565b5b60405190808252806020026020018201604052801561223257816020015b61221f612aed565b8152602001906001900390816122175790505b5090506000805b6007548110156123e65786600a600083815260200190815260200160002060000154036123d957600a60008281526020019081526020016000206040518060600160405290816000820154815260200160018201805461229890613996565b80601f01602080910402602001604051908101604052809291908181526020018280546122c490613996565b80156123115780601f106122e657610100808354040283529160200191612311565b820191906000526020600020905b8154815290600101906020018083116122f457829003601f168201915b5050505050815260200160028201805461232a90613996565b80601f016020809104026020016040519081016040528092919081815260200182805461235690613996565b80156123a35780601f10612378576101008083540402835291602001916123a3565b820191906000526020600020905b81548152906001019060200180831161238657829003601f168201915b5050505050815250508383815181106123bf576123be613c8d565b5b602002602001018190525081806123d590613c45565b9250505b8080600101915050612239565b5081945050505050919050565b600160003373ffffffffffffffffffffffffffffffffffffffff1673ffffffffffffffffffffffffffffffffffffffff16815260200190815260200160002060009054906101000a900460ff1615612480576040517f08c379a00000000000000000000000000000000000000000000000000000000081526004016124779061424d565b60405180910390fd5b8060005b60028054905081101561257a578180519060200120600080600284815481106124b0576124af613c8d565b5b9060005260206000200160009054906101000a900473ffffffffffffffffffffffffffffffffffffffff1673ffffffffffffffffffffffffffffffffffffffff1673ffffffffffffffffffffffffffffffffffffffff1681526020019081526020016000206001016040516125259190614132565b60405180910390200361256d576040517f08c379a0000000000000000000000000000000000000000000000000000000008152600401612564906141bb565b60405180910390fd5b8080600101915050612484565b600360149054906101000a900460ff16156125ca576040517f08c379a00000000000000000000000000000000000000000000000000000000081526004016125c19061384f565b60405180910390fd5b600060405180606001604052808673ffffffffffffffffffffffffffffffffffffffff168152602001858152602001604051806020016040528060008152508152509050806000808773ffffffffffffffffffffffffffffffffffffffff1673ffffffffffffffffffffffffffffffffffffffff16815260200190815260200160002060008201518160000160006101000a81548173ffffffffffffffffffffffffffffffffffffffff021916908373ffffffffffffffffffffffffffffffffffffffff16021790555060208201518160010190816126a99190613b73565b5060408201518160020190816126bf9190613b73565b509050506002859080600181540180825580915050600190039060005260206000200160009091909190916101000a81548173ffffffffffffffffffffffffffffffffffffffff021916908373ffffffffffffffffffffffffffffffffffffffff16021790555060018060008773ffffffffffffffffffffffffffffffffffffffff1673ffffffffffffffffffffffffffffffffffffffff16815260200190815260200160002060006101000a81548160ff0219169083151502179055505050505050565b600360149054906101000a900460ff16156127d4576040517f08c379a00000000000000000000000000000000000000000000000000000000081526004016127cb9061384f565b60405180910390fd5b600160003373ffffffffffffffffffffffffffffffffffffffff1673ffffffffffffffffffffffffffffffffffffffff16815260200190815260200160002060009054906101000a900460ff16612860576040517f08c379a00000000000000000000000000000000000000000000000000000000081526004016128579061406f565b60405180910390fd5b806000803373ffffffffffffffffffffffffffffffffffffffff1673ffffffffffffffffffffffffffffffffffffffff16815260200190815260200160002060020190816128ae9190613b73565b5050565b6128ba612abe565b600860008381526020019081526020016000206040518060a0016040529081600082015481526020016001820180546128f290613996565b80601f016020809104026020016040519081016040528092919081815260200182805461291e90613996565b801561296b5780601f106129405761010080835404028352916020019161296b565b820191906000526020600020905b81548152906001019060200180831161294e57829003601f168201915b5050505050815260200160028201805461298490613996565b80601f01602080910402602001604051908101604052809291908181526020018280546129b090613996565b80156129fd5780601f106129d2576101008083540402835291602001916129fd565b820191906000526020600020905b8154815290600101906020018083116129e057829003601f168201915b50505050508152602001600382015481526020016004820154815250509050919050565b508054612a2d90613996565b6000825580601f10612a3f5750612a5e565b601f016020900490600052602060002090810190612a5d9190612b0e565b5b50565b604051806101000160405280600081526020016000815260200160608152602001606081526020016000815260200160608152602001600015158152602001600073ffffffffffffffffffffffffffffffffffffffff1681525090565b6040518060a0016040528060008152602001606081526020016060815260200160008152602001600081525090565b60405180606001604052806000815260200160608152602001606081525090565b5b80821115612b27576000816000905550600101612b0f565b5090565b600081519050919050565b600082825260208201905092915050565b6000819050602082019050919050565b600073ffffffffffffffffffffffffffffffffffffffff82169050919050565b6000612b8282612b57565b9050919050565b612b9281612b77565b82525050565b6000612ba48383612b89565b60208301905092915050565b6000602082019050919050565b6000612bc882612b2b565b612bd28185612b36565b9350612bdd83612b47565b8060005b83811015612c0e578151612bf58882612b98565b9750612c0083612bb0565b925050600181019050612be1565b5085935050505092915050565b60006020820190508181036000830152612c358184612bbd565b905092915050565b6000604051905090565b600080fd5b600080fd5b6000819050919050565b612c6481612c51565b8114612c6f57600080fd5b50565b600081359050612c8181612c5b565b92915050565b600060208284031215612c9d57612c9c612c47565b5b6000612cab84828501612c72565b91505092915050565b600080fd5b600080fd5b6000601f19601f8301169050919050565b7f4e487b7100000000000000000000000000000000000000000000000000000000600052604160045260246000fd5b612d0782612cbe565b810181811067ffffffffffffffff82111715612d2657612d25612ccf565b5b80604052505050565b6000612d39612c3d565b9050612d458282612cfe565b919050565b600067ffffffffffffffff821115612d6557612d64612ccf565b5b612d6e82612cbe565b9050602081019050919050565b82818337600083830152505050565b6000612d9d612d9884612d4a565b612d2f565b905082815260208101848484011115612db957612db8612cb9565b5b612dc4848285612d7b565b509392505050565b600082601f830112612de157612de0612cb4565b5b8135612df1848260208601612d8a565b91505092915050565b60008060408385031215612e1157612e10612c47565b5b6000612e1f85828601612c72565b925050602083013567ffffffffffffffff811115612e4057612e3f612c4c565b5b612e4c85828601612dcc565b9150509250929050565b600081519050919050565b600082825260208201905092915050565b6000819050602082019050919050565b612e8b81612c51565b82525050565b600081519050919050565b600082825260208201905092915050565b60005b83811015612ecb578082015181840152602081019050612eb0565b60008484015250505050565b6000612ee282612e91565b612eec8185612e9c565b9350612efc818560208601612ead565b612f0581612cbe565b840191505092915050565b60008115159050919050565b612f2581612f10565b82525050565b600061010083016000830151612f446000860182612e82565b506020830151612f576020860182612e82565b5060408301518482036040860152612f6f8282612ed7565b91505060608301518482036060860152612f898282612ed7565b9150506080830151612f9e6080860182612e82565b5060a083015184820360a0860152612fb68282612ed7565b91505060c0830151612fcb60c0860182612f1c565b5060e0830151612fde60e0860182612b89565b508091505092915050565b6000612ff58383612f2b565b905092915050565b6000602082019050919050565b600061301582612e56565b61301f8185612e61565b93508360208202850161303185612e72565b8060005b8581101561306d578484038952815161304e8582612fe9565b945061305983612ffd565b925060208a01995050600181019050613035565b50829750879550505050505092915050565b60006020820190508181036000830152613099818461300a565b905092915050565b600081519050919050565b600082825260208201905092915050565b6000819050602082019050919050565b60006130d98383612ed7565b905092915050565b6000602082019050919050565b60006130f9826130a1565b61310381856130ac565b935083602082028501613115856130bd565b8060005b85811015613151578484038952815161313285826130cd565b945061313d836130e1565b925060208a01995050600181019050613119565b50829750879550505050505092915050565b6000602082019050818103600083015261317d81846130ee565b905092915050565b600081519050919050565b600082825260208201905092915050565b6000819050602082019050919050565b600060a0830160008301516131c96000860182612e82565b50602083015184820360208601526131e18282612ed7565b915050604083015184820360408601526131fb8282612ed7565b91505060608301516132106060860182612e82565b5060808301516132236080860182612e82565b508091505092915050565b600061323a83836131b1565b905092915050565b6000602082019050919050565b600061325a82613185565b6132648185613190565b935083602082028501613276856131a1565b8060005b858110156132b25784840389528151613293858261322e565b945061329e83613242565b925060208a0199505060018101905061327a565b50829750879550505050505092915050565b600060208201905081810360008301526132de818461324f565b905092915050565b6132ef81612b77565b81146132fa57600080fd5b50565b60008135905061330c816132e6565b92915050565b60006020828403121561332857613327612c47565b5b6000613336848285016132fd565b91505092915050565b61334881612f10565b82525050565b6000602082019050613363600083018461333f565b92915050565b60008060006060848603121561338257613381612c47565b5b600061339086828701612c72565b935050602084013567ffffffffffffffff8111156133b1576133b0612c4c565b5b6133bd86828701612dcc565b925050604084013567ffffffffffffffff8111156133de576133dd612c4c565b5b6133ea86828701612dcc565b9150509250925092565b600082825260208201905092915050565b600061341082612e91565b61341a81856133f4565b935061342a818560208601612ead565b61343381612cbe565b840191505092915050565b600060208201905081810360008301526134588184613405565b905092915050565b60006020828403121561347657613475612c47565b5b600082013567ffffffffffffffff81111561349457613493612c4c565b5b6134a084828501612dcc565b91505092915050565b600081519050919050565b600082825260208201905092915050565b6000819050602082019050919050565b60006060830160008301516134ed6000860182612e82565b50602083015184820360208601526135058282612ed7565b9150506040830151848203604086015261351f8282612ed7565b9150508091505092915050565b600061353883836134d5565b905092915050565b6000602082019050919050565b6000613558826134a9565b61356281856134b4565b935083602082028501613574856134c5565b8060005b858110156135b05784840389528151613591858261352c565b945061359c83613540565b925060208a01995050600181019050613578565b50829750879550505050505092915050565b600060208201905081810360008301526135dc818461354d565b905092915050565b600080604083850312156135fb576135fa612c47565b5b6000613609858286016132fd565b925050602083013567ffffffffffffffff81111561362a57613629612c4c565b5b61363685828601612dcc565b9150509250929050565b600060a0830160008301516136586000860182612e82565b50602083015184820360208601526136708282612ed7565b9150506040830151848203604086015261368a8282612ed7565b915050606083015161369f6060860182612e82565b5060808301516136b26080860182612e82565b508091505092915050565b600060208201905081810360008301526136d78184613640565b905092915050565b7f536f6c6f206c206175746f72652064656c20706f73742070756f20656c696d6960008201527f6e61726c6f000000000000000000000000000000000000000000000000000000602082015250565b600061373b6025836133f4565b9150613746826136df565b604082019050919050565b6000602082019050818103600083015261376a8161372e565b9050919050565b7f496c20706f7374206e6f6e206573697374650000000000000000000000000000600082015250565b60006137a76012836133f4565b91506137b282613771565b602082019050919050565b600060208201905081810360008301526137d68161379a565b9050919050565b7f456d657267656e7a61206174746976613a207475747465206c65206f7065726160008201527f7a696f6e6920736f6e6f20736f73706573652e00000000000000000000000000602082015250565b60006138396033836133f4565b9150613844826137dd565b604082019050919050565b600060208201905081810360008301526138688161382c565b9050919050565b7f4e487b7100000000000000000000000000000000000000000000000000000000600052601160045260246000fd5b60006138a982612c51565b91506138b483612c51565b92508282039050818111156138cc576138cb61386f565b5b92915050565b60006138dd82612c51565b9150600082036138f0576138ef61386f565b5b600182039050919050565b7f4163636f756e74206e6f6e207265676973747261746f00000000000000000000600082015250565b60006139316016836133f4565b915061393c826138fb565b602082019050919050565b6000602082019050818103600083015261396081613924565b9050919050565b7f4e487b7100000000000000000000000000000000000000000000000000000000600052602260045260246000fd5b600060028204905060018216806139ae57607f821691505b6020821081036139c1576139c0613967565b5b50919050565b60008190508160005260206000209050919050565b60006020601f8301049050919050565b600082821b905092915050565b600060088302613a297fffffffffffffffffffffffffffffffffffffffffffffffffffffffffffffffff826139ec565b613a3386836139ec565b95508019841693508086168417925050509392505050565b6000819050919050565b6000613a70613a6b613a6684612c51565b613a4b565b612c51565b9050919050565b6000819050919050565b613a8a83613a55565b613a9e613a9682613a77565b8484546139f9565b825550505050565b600090565b613ab3613aa6565b613abe818484613a81565b505050565b5b81811015613ae257613ad7600082613aab565b600181019050613ac4565b5050565b601f821115613b2757613af8816139c7565b613b01846139dc565b81016020851015613b10578190505b613b24613b1c856139dc565b830182613ac3565b50505b505050565b600082821c905092915050565b6000613b4a60001984600802613b2c565b1980831691505092915050565b6000613b638383613b39565b9150826002028217905092915050565b613b7c82612e91565b67ffffffffffffffff811115613b9557613b94612ccf565b5b613b9f8254613996565b613baa828285613ae6565b600060209050601f831160018114613bdd5760008415613bcb578287015190505b613bd58582613b57565b865550613c3d565b601f198416613beb866139c7565b60005b82811015613c1357848901518255600182019150602085019450602081019050613bee565b86831015613c305784890151613c2c601f891682613b39565b8355505b6001600288020188555050505b505050505050565b6000613c5082612c51565b91507fffffffffffffffffffffffffffffffffffffffffffffffffffffffffffffffff8203613c8257613c8161386f565b5b600182019050919050565b7f4e487b7100000000000000000000000000000000000000000000000000000000600052603260045260246000fd5b7f4861692067696127206d6573736f206c696b6520612071756573746f20706f7360008201527f742e000000000000000000000000000000000000000000000000000000000000602082015250565b6000613d186022836133f4565b9150613d2382613cbc565b604082019050919050565b60006020820190508181036000830152613d4781613d0b565b9050919050565b7f506f7374206e6f6e206573697374656e74652e00000000000000000000000000600082015250565b6000613d846013836133f4565b9150613d8f82613d4e565b602082019050919050565b60006020820190508181036000830152613db381613d77565b9050919050565b7f48616920676961206d6573736f20756e206c696b6520612071756573746f207060008201527f6f73742e00000000000000000000000000000000000000000000000000000000602082015250565b6000613e166024836133f4565b9150613e2182613dba565b604082019050919050565b60006020820190508181036000830152613e4581613e09565b9050919050565b613e5581612b77565b82525050565b613e6481612c51565b82525050565b6000604082019050613e7f6000830185613e4c565b613e8c6020830184613e5b565b9392505050565b7f496c2047727570706f206e6f6e20657369737465203a28000000000000000000600082015250565b6000613ec96017836133f4565b9150613ed482613e93565b602082019050919050565b60006020820190508181036000830152613ef881613ebc565b9050919050565b7f536f6c6f206c27616d6d696e6973747261746f72652070756f2720657365677560008201527f69726520717565737461206f706572617a696f6e652e00000000000000000000602082015250565b6000613f5b6036836133f4565b9150613f6682613eff565b604082019050919050565b60006020820190508181036000830152613f8a81613f4e565b9050919050565b7f496c207469746f6c6f20737570657261206c61206c756e6768657a7a61206d6160008201527f7373696d61206469203635206361726174746572690000000000000000000000602082015250565b6000613fed6035836133f4565b9150613ff882613f91565b604082019050919050565b6000602082019050818103600083015261401c81613fe0565b9050919050565b7f4163636f756e74206e6f6e206573697374656e74652e00000000000000000000600082015250565b60006140596016836133f4565b915061406482614023565b602082019050919050565b600060208201905081810360008301526140888161404c565b9050919050565b600081905092915050565b60008190508160005260206000209050919050565b600081546140bc81613996565b6140c6818661408f565b945060018216600081146140e157600181146140f657614129565b60ff1983168652811515820286019350614129565b6140ff8561409a565b60005b8381101561412157815481890152600182019150602081019050614102565b838801955050505b50505092915050565b600061413e82846140af565b915081905092915050565b7f4d692064697370696163652c206e69636b5f6e616d65206573697374656e746560008201527f203a280000000000000000000000000000000000000000000000000000000000602082015250565b60006141a56023836133f4565b91506141b082614149565b604082019050919050565b600060208201905081810360008301526141d481614198565b9050919050565b7f4c276163636f756e74206573697374652c20656666657474756120696c206c6f60008201527f67696e203a280000000000000000000000000000000000000000000000000000602082015250565b60006142376026836133f4565b9150614242826141db565b604082019050919050565b600060208201905081810360008301526142668161422a565b905091905056fea2646970667358221220a0dfb99c3f9ae119d68fb0054a154f4610f7bf46c9457f8afec5968e8546cc6964736f6c634300081c003354656d61746963686520646920636f64696e672065207376696c7570706f20736f667477617265416c6c656e616d656e74692c206469657465206520636f6e7369676c6920706572206c612073616c757465436f6e646976696469206c65207475652070617373696f6e69206d75736963616c6944697363757373696f6e6920737520726f6d616e7a692065206c65747475726520696e746572657373616e746944657374696e617a696f6e69206520636f6e7369676c69206469207669616767696f44697363757373696f6e692073752073706f727420652061747469766974612720666973696361",
  "linkReferences": {},
  "deployedLinkReferences": {}
}